S018000054616D61676F746368695F436C6F6E652E73726563BB
S11300000C9446000C9463000C9463000C946300FD
S11300100C9463000C9463000C9463000C946300D0
S11300200C9463000C9463000C9463000C946300C0
S11300300C9463000C9463000C9463000C946300B0
S11300400C9463000C9463000C9463000C946300A0
S11300500C946300240229022E02330238023D026A
S1130060420247024C0251021E031E033A0342039A
S11300704A03520357035C036103C000D2007D01AD
S11300809201A601BA01B802D602F60211241FBEDB
S1130090CFE5D8E0DEBFCDBF11E0A0E6B0E0E0E5FB
S11300A0F0E102C005900D92AE30B107D9F721E01E
S11300B0AEE0B1E001C01D92AF31B207E1F70E949A
S11300C081000C9426080C9400009C0183E083BFFB
S11300D083E808C082BF98B7916098BFA89508B616
S11300E000FEFDCF21503109A8F713BE0895EFE0BB
S11300F0F1E02FE131E080E28193E217F307E1F7C9
S113010008952F923F924F925F926F927F928F92B7
S11301109F92AF92BF92CF92DF92EF92FF920F9392
S11301201F93CF93DF93CDB7DEB72E970FB6F89416
S1130130DEBF0FBECDBF10920E010E940F040E94BD
S113014037041B861A861C86198641E04D8381E09C
S11301508983712C612C412CE12CF12C14E61A8238
S1130160512C01E00F2EFBE78F2EF0E09F2EF02D97
S11301700F2EFAE02F2E312CF02DFE86ED86B8C21C
S11301800E9437040983712C612C412C1D861E8624
S11301901AE51A82512C94E69C83A4E6AE83B4E655
S11301A0BB833FC2EE81CE2ED12CFC81AF2EB12C6D
S11301B0CA9CC001CB9C900DDA9C900D112464E67E
S11301C070E00E9461047B016B836DE080E00E941B
S11301D03C0489E790E00E9450046EE080E00E94B5
S11301E03C040E947700842D90E098878F831F92AF
S11301F04F929F928F928FE091E09F938F930E94F2
S1130200EB048FE091E00E9450040F900F900F9048
S11302100F900F900F90AD85BE85AB2B09F05CC09D
S11302200E94370473948A818F5FB82FB170BA83A8
S113023080FF09C066E080E00E943C0480E890E012
S11302400E9450040BC0EA81E11108C066E080E01E
S11302500E943C0485E890E00E94500460E0802FF6
S11302600E943C040E947700BF92AF92DF92CF922B
S1130270FF24FF92EF92AAE8B0E0BF93AF930F2E52
S1130280FFE0EF2EF1E0FF2EF02DFF92EF920E949F
S1130290EB04C7010E9450046DE080E00E943C041E
S11302A089E790E00E9450046EE080E00E943C04E4
S11302B00E947700F885FF934F814F939F928F920E
S11302C0FF92EF920E94EB04C7010E9450040FB604
S11302D0F894DEBF0FBECDBF94E0791205C0AE81A5
S11302E0A150AE834394712C80916500841199C10F
S11302F0BC81BA50BC83412C94C10E94370460E095
S113030080E00E943C048EE990E00E94500460E08A
S1130310802F0E943C048AEA90E00E9450040D83DE
S1130320612C7FC10E94370460E080E00E943C049D
S113033084EB90E00E94500460E0802F0E943C0413
S11303408AEA90E00E945004612C6BC10E94370439
S113035060E080E00E943C0484EC90E00E94500441
S113036060E0802F0E943C048AEA90E00E945004DE
S1130370612C57C1ED81EE23B1F00E94370460E097
S113038080E00E943C040E947700E0EDF0E0AFE0E2
S1130390B1E081E101900D928A95E1F77C8669864E
S11303A01D821AE599C0262D30E0F9858F2F90E043
S11303B0AC014F5F5F4F2417350791F54C8547110A
S11303C036C00E94DB0465E070E00E9461046C01A9
S11303D00E94DB0466E070E00E9461047C01C601B7
S11303E08E0D9F1D9B878A870E94370460E080E002
S11303F00E943C040E947700FF92EF92DF92CF921A
S1130400A1EEB0E0BF93AF938FE091E09F938F9301
S11304100E94EB040FB6F894DEBF0FBECDBF5CC0E4
S113042003962817390719F49C85971519F01A357E
S113043009F452C0AA85BB85AA30B105B8F5FD01FF
S1130440E65DFF4F0C947504103399F10D83198206
S113045043C0113381F10D8319823EC0123369F117
S11304600D83198239C0133351F10D83198234C0BD
S1130470143339F10D8319822FC0153321F10D8303
S113048019822AC0163309F10D83198225C0173346
S1130490F1F00D83198220C01833D9F00D8319822D
S11304A01BC01933C1F00D83198216C00D83098353
S11304B013C00D8311C00D830FC00D830DC00D83B8
S11304C00BC00D8309C00D8307C00D8305C00D83C8
S11304D003C00D8301C00D83ED85FE85EF2B11F55F
S11304E08FE091E00E9450046EE0802F0E943C0453
S11304F00E9477001F926F929F928F928FE091E0FB
S11305009F938F930E94EB048FE091E00E9450042C
S11305107394FA81FF5FFA830F900F900F900F90FE
S11305200F900F9044E0741202C06394712C89817F
S1130530811114C00E94370460E080E00E943C04F2
S113054087EE90E00E94500488EE93E00E946500DC
S11305509C8195509C830983512C01C0502E80911D
S1130560640068125EC0AC81AF5FAC83512C59C08B
S11305700E94370460E080E00E943C0480EF90E039
S11305800E94500488EE93E00E946500ED85FE858C
S1130590EF2B21F47394FA81FF5FFA8344E0741221
S11305A03BC063940983712C512C3BC00E943704D7
S11305B060E080E00E943C0485EF90E00E945004DB
S11305C088EE93E00E9465008D859E85892B31F429
S11305D00E94370473949A819F5F9A83A4E07A12ED
S11305E01EC063940983712C512C1BC00E94770098
S11305F0EAEFF0E0AFE0B1E083E101900D928A957B
S1130600E1F70E94370460E080E00E943C048FE040
S113061091E00E94500405C00983512C02C0098353
S1130620512CE0910E018E2F90E08930910508F055
S11306304EC0FC01EC5CFF4F0C947504BB81B111FE
S113064004C088E080930E0142C0113421F482E09A
S113065080930E013CC0123421F483E080930E0198
S113066036C0133421F484E080930E0130C000932B
S11306700E012DC080ED97E00E94650085E0809317
S11306800E0125C080ED97E00E94650086E080930E
S11306900E011DC080ED97E00E946500E7E0E09345
S11306A00E0115C0511013C000930E0110C051105B
S11306B00EC000930E010BC0511009C000930E012F
S11306C006C0103311F1113311F410920E01809110
S11306D06600909167000E9465000E94E803182F4D
S11306E08D859E850196B1010E9461049E878D8748
S11306F0E0910E018E2F90E08930910508F091CFA2
S1130700FC01E35CFF4F0C94750480E090E02E96AE
S11307100FB6F894DEBF0FBECDBFDF91CF911F910E
S11307200F91FF90EF90DF90CF90BF90AF909F908C
S11307308F907F906F905F904F903F902F9008958F
S113074014BA90EF95BB44B321E030E0F90102C044
S1130750EE0FFF1F8A95E2F7CF014E2B44BB95B3F2
S11307608095892385BB85B370E06C5F7F4F062E2F
S113077002C0220F331F0A94E2F7282B25BB83B350
S113078090E002C0959587956A95E2F7F1E08F278E
S1130790817008951F93CF93DF93D0E010E012C0CF
S11307A06C2F8D2F0E94A003882331F0CF5F8D2FF3
S11307B0880F880F8C0F08C0CF5FC43089F7DF5FC4
S11307C0D43011F0C12FECCFDF91CF911F91089558
S11307D00E94CA03E82FF0E0E859FF4F8081089592
S11307E0662311F0C09A01C0C098C19882BB8FEFF4
S11307F081BBC29A000000000000C2980895C0980E
S1130800C19A11BA90B3C29A00000000000011BA54
S113081090B3C29899239CF30E94F0030895B89A68
S1130820B99ABA9A80E190E00E94650060E080E3A2
S11308300E94F00385E090E00E94650060E080E3A0
S11308400E94F00381E090E00E94650060E08CE388
S11308500E94FF0360E08CE00E94FF0360E086E0FA
S11308600E94FF0360E081E00E94FF03089560E0BE
S113087081E00E94FF030895CF93C62F98E2899FD9
S1130880C00D112460E082E00E94FF03CC2331F00C
S113089060E084E10E94FF03C150D1F7CF91089535
S11308A0CF93DF93EC012196FC018081882331F002
S11308B061E00E94FF0389918111FACFDF91CF910A
S11308C0089597FB072E16F4009407D077FD09D0FE
S11308D00E947B0407FC05D03EF4909581959F4FC0
S11308E00895709561957F4F0895EE0FFF1F059051
S11308F0F491E02D0994AA1BBB1B51E107C0AA1F68
S1130900BB1FA617B70710F0A61BB70B881F991FAC
S11309105A95A9F780959095BC01CD0108958F92C1
S11309209F92AF92BF92CF92DF92EF92FF92CF93BA
S1130930DF93EC01688179818A819B81611571055E
S11309408105910521F464E279ED8BE597E02DE1D1
S113095033EF41E050E00E948C0749015A019B01AA
S1130960AC01A7EAB1E40E94AB076B017C01ACEED9
S1130970B4EFA50194010E94B907DC01CB018C0DF1
S11309809D1DAE1DBF1DB7FF03C00197A109B0484F
S113099088839983AA83BB839F77DF91CF91FF904C
S11309A0EF90DF90CF90BF90AF909F908F9008957D
S11309B00E948F04089580E690E00E948F040895B9
S11309C0A0E0B0E08093600090936100A093620087
S11309D0B09363000895AEE0B0E0E1EFF4E00C946E
S11309E0CC070D891E8986E08C831A8309838FEFD7
S11309F09FE79E838D83AE01475E5F4F6F89788D3D
S1130A00CE0101960E940E052F813885F801E20F70
S1130A10F31F10822E96E4E00C94E807ACE0B0E0FB
S1130A20E4E1F5E00C94BE077C016B018A01FC0152
S1130A3017821682838181FFBDC1CE0101964C01CC
S1130A40F7019381F60193FD859193FF81916F01E5
S1130A50882309F4ABC1853239F493FD859193FF62
S1130A6081916F01853229F4B70190E00E94F60666
S1130A70E7CF512C312C20E02032A0F48B3269F0E6
S1130A8030F4803259F0833269F420612CC08D3205
S1130A9039F0803339F4216026C02260246023C0F9
S1130AA0286021C027FD27C030ED380F3A3078F494
S1130AB026FF06C0FAE05F9E300D1124532E13C0AA
S1130AC08AE0389E300D1124332E20620CC08E3201
S1130AD021F426FD6BC1206406C08C3611F4206815
S1130AE002C0883641F4F60193FD859193FF81910C
S1130AF06F018111C1CF982F9F7D9554933028F4B5
S1130B000C5F1F4FFFE3F9830DC0833631F0833749
S1130B1071F0833509F05BC022C0F80180818983BC
S1130B200E5F1F4F44244394512C540115C03801C7
S1130B30F2E06F0E711CF801A080B18026FF03C0A3
S1130B40652D70E002C06FEF7FEFC5012C870E9416
S1130B50EB062C0183012C852F77222E17C0380138
S1130B60F2E06F0E711CF801A080B18026FF03C073
S1130B70652D70E002C06FEF7FEFC5012C870E94E6
S1130B80E0062C012C852068222E830123FC1BC047
S1130B90832D90E048165906B0F4B70180E290E046
S1130BA00E94F6063A94F4CFF50127FC859127FEBE
S1130BB081915F01B70190E00E94F60631103A94EA
S1130BC0F1E04F1A51084114510471F7E5C084361D
S1130BD011F0893639F5F80127FF07C0608171816A
S1130BE0828193810C5F1F4F08C060817181072E41
S1130BF0000C880B990B0E5F1F4F2F76722E97FFF8
S1130C0009C090958095709561957F4F8F4F9F4F48
S1130C102068722E2AE030E0A4010E942E07A82E3C
S1130C20A81844C0853729F42F7EB22E2AE030E07C
S1130C3025C0F22FF97FBF2E8F36C1F018F4883506
S1130C4079F0B4C0803719F0883721F0AFC02F2F66
S1130C502061B22EB4FE0DC08B2D8460B82E09C065
S1130C6024FF0AC09F2F9660B92E06C028E030E00A
S1130C7005C020E130E002C020E132E0F801B7FE17
S1130C8007C060817181828193810C5F1F4F06C010
S1130C906081718180E090E00E5F1F4FA4010E948B
S1130CA02E07A82EA818FB2DFF777F2E76FE0BC0EB
S1130CB0372D3E7FA51450F474FE0AC072FC08C0A0
S1130CC0372D3E7E05C0BA2C372D03C0BA2C01C087
S1130CD0B52C34FF0DC0FE01EA0DF11D8081803377
S1130CE011F4397E09C032FF06C0B394B39404C032
S1130CF0832F867809F0B39433FD13C030FF06C008
S1130D005A2CB31418F4530C5B18B32CB31468F4B2
S1130D10B70180E290E03C870E94F606B3943C85DC
S1130D20F5CFB31410F43B1801C0312C34FF12C0BA
S1130D30B70180E390E03C870E94F6063C8532FFD1
S1130D4017C031FD03C088E790E002C088E590E059
S1130D50B7010CC0832F867859F031FF02C08BE2B3
S1130D6001C080E237FD8DE2B70190E00E94F606F3
S1130D70A51438F4B70180E390E00E94F6065A9473
S1130D80F7CFAA94F401EA0DF11D8081B70190E038
S1130D900E94F606A110F5CF332009F451CEB70115
S1130DA080E290E00E94F6063A94F6CFF70186813D
S1130DB0978102C08FEF9FEF2C96E2E10C94DA0743
S1130DC0FC010590615070400110D8F78095909512
S1130DD08E0F9F1F0895FC01615070400190011017
S1130DE0D8F7809590958E0F9F1F08950F931F93AA
S1130DF0CF93DF93FB01238121FD03C08FEF9FEF8E
S1130E0028C022FF16C046815781248135814217AC
S1130E10530744F4A081B1819D012F5F3F4F31837B
S1130E2020838C93268137812F5F3F4F378326831E
S1130E3010C0EB01092F182F0084F185E02D0995CE
S1130E40892BE1F68E819F8101969F838E83812F6A
S1130E50902FDF91CF911F910F910895FA01AA2746
S1130E60283051F1203181F1E8946F936E7F6E5FE9
S1130E707F4F8F4F9F4FAF4FB1E03ED0B4E03CD097
S1130E80670F781F891F9A1FA11D680F791F8A1F7A
S1130E90911DA11D6A0F711D811D911DA11D20D0E1
S1130EA009F468943F912AE0269F11243019305D9B
S1130EB03193DEF6CF010895462F4770405D41938C
S1130EC0B3E00FD0C9F7F6CF462F4F70405D4A33D9
S1130ED018F0495D31FD4052419302D0A9F7EACFA1
S1130EE0B4E0A6959795879577956795BA95C9F7D0
S1130EF000976105710508959B01AC010A2E0694C3
S1130F005795479537952795BA95C9F7620F731F7B
S1130F10841F951FA01D0895052E97FB1EF40094B1
S1130F200E94A30757FD07D00E94F50707FC03D0D2
S1130F304EF40C94A30750954095309521953F4F5E
S1130F404F4F5F4F089590958095709561957F4FB1
S1130F508F4F9F4F08950E941708A59F900DB49F2F
S1130F60900DA49F800D911D11240895B7FF0C943A
S1130F70AB070E94AB07821B930B08952F923F92FD
S1130F804F925F926F927F928F929F92AF92BF9295
S1130F90CF92DF92EF92FF920F931F93CF93DF9341
S1130FA0CDB7DEB7CA1BDB0B0FB6F894DEBF0FBE9E
S1130FB0CDBF09942A88398848885F846E847D84EB
S1130FC08C849B84AA84B984C884DF80EE80FD80ED
S1130FD00C811B81AA81B981CE0FD11D0FB6F89463
S1130FE0DEBF0FBECDBFED010895A1E21A2EAA1BEC
S1130FF0BB1BFD010DC0AA1FBB1FEE1FFF1FA217C5
S1131000B307E407F50720F0A21BB30BE40BF50BC1
S1131010661F771F881F991F1A9469F7609570954A
S1131020809590959B01AC01BD01CF010895A29FCD
S1131030B001B39FC001A39F700D811D1124911DA8
S1131040B29F700D811D1124911D0895F894FFCF56
S1131050010000001E3C19005A3132334134353648
S113106042373839432A3023445300253032640050
S1131070283A3E2900283C3A29005325303364207D
S11310804825303364204D253033642020005369D3
S11310906D6F6E205361797321004765742052652A
S11310A061647900446F64676520746865205374D3
S11310B0617221005761636B61204D6F6C65210083
S11310C0456E7465722074686520526573756C741E
S11310D00025642B256400596F75206C6F736500BF
S11310E04A47474C00574D474C0050726573732074
S11110F03120746F2072657374617274000095
S9030000FC
